:100000000C9446000C9465000C9465000C946500FB
:100010000C9465000C9465000C9465000C946500CC
:100020000C9465000C9465000C9465000C946500BC
:100030000C9465000C940C010C9465000C94650004
:100040000C9465000C9465000C9465000C9465009C
:100050000C9465000C9465000C9465000C9465008C
:100060000C9465000C9465000C9465000C9465007C
:100070000C9465000C9465000C9465000C9465006C
:100080000C9465000C9465000C94650011241FBE4F
:10009000CFEFD0E4DEBFCDBF11E0A0E0B1E0E0E8FB
:1000A000FAE000E00BBF02C007900D92A032B1074A
:1000B000D9F721E0A0E2B1E001C01D92AA34B20755
:1000C000E1F70E9480030C943E050C940000CF934E
:1000D000DF9300D01F92CDB7DEB789837B836A831D
:1000E00089818A3031F48A819B81BC018DE00E9434
:1000F000670080EC90E0FC018081882F90E08072A6
:100100009927892BB1F386EC90E02981FC012083AB
:1001100080E090E00F900F900F90DF91CF910895C5
:10012000CF93DF9300D000D0CDB7DEB769837A8359
:100130008B839C8389819A81AB81BC8180930E01E2
:1001400090930F01A0931001B093110180910E01C3
:1001500090910F01A0911001B091110180932101A4
:1001600090932201A0932301B093240100000F90EB
:100170000F900F900F90DF91CF910895CF93DF9361
:10018000CDB7DEB781E890E02BE0FC01208388E862
:1001900090E02DE730E0FC01318320838FE690E092
:1001A00022E0FC01208384E890E0FC0111821082AF
:1001B00080910E0190910F01A0911001B091110159
:1001C0008093210190932201A0932301B0932401F5
:1001D0008FE590E02FE530E0F90120812068FC01F7
:1001E00020830000DF91CF910895CF93DF93CDB7A7
:1001F000DEB781E890E0FC0110820000DF91CF9132
:100200000895CF93DF93CDB7DEB781E080932001CF
:100210000000DF91CF9108951F920F9200905F0030
:100220000F92112400905B000F922F933F934F93F6
:100230005F936F937F938F939F93AF93BF93EF934E
:10024000FF93CF93DF93CDB7DEB7809121019091DB
:100250002201A0912301B09124010197A109B109C4
:100260008093210190932201A0932301B093240154
:100270008091210190912201A0912301B09124014C
:10028000892B8A2B8B2B91F40E94010180910E0106
:1002900090910F01A0911001B09111018093210163
:1002A00090932201A0932301B09324010000DF91D9
:1002B000CF91FF91EF91BF91AF919F918F917F91DE
:1002C0006F915F914F913F912F910F9000925B0042
:1002D0000F9000925F000F901F901895CF93DF93BF
:1002E00000D0CDB7DEB79A83898389819A81892B23
:1002F00019F01A82198201C0000089819A81892B24
:1003000009F026C0809117018F3E59F480911801A1
:10031000813039F480E8809318018EEF80931701C3
:1003200016C080911801813069F480E8809318012B
:1003300080911701882F90E0880F991F816080932A
:10034000170105C08091180186958093180100005F
:1003500088E290E020911801FC0120838BE290E07C
:1003600020911701FC01208389819A810F900F90C1
:10037000DF91CF910895CF93DF9300D01F92CDB737
:10038000DEB79B838A8380E290E0FC0180818095C8
:10039000837089838A819B8181309105F9F0823055
:1003A0009105A9F1892B09F04BC08981882319F0A7
:1003B0008981833029F482E090E09B838A8345C061
:1003C0008981813029F481E090E09B838A833DC05C
:1003D00089818230D1F51B821A8237C089818823B6
:1003E00019F08981833029F482E090E09B838A832D
:1003F0002EC08981813029F481E090E09B838A833B
:1004000026C08981823019F51B821A8220C0898119
:10041000882319F08981833029F482E090E09B835E
:100420008A8317C08981813029F481E090E09B8321
:100430008A830FC08981823061F41B821A8209C0CD
:1004400082E090E09B838A8305C0000003C0000027
:1004500001C000008A819B818130910579F0823052
:100460009105B1F0892BC9F480911301803E91F080
:1004700080911301880F809313010CC080911301A8
:10048000873051F08091130186958093130104C049
:10049000000003C0000001C000008A819B810F9012
:1004A0000F900F90DF91CF910895CF93DF9300D0FD
:1004B000CDB7DEB79A83898389819A81813091058E
:1004C000F9F082309105A9F1892B09F04BC0909188
:1004D000120180911501981728F481E090E09A8329
:1004E000898344C09091120180911501891718F4F5
:1004F0001A8219823BC082E090E09A83898336C0D9
:100500009091120180911501981728F481E090E0F4
:100510009A8389832BC090911201809115018917CC
:1005200018F41A82198222C082E090E09A838983AB
:100530001DC09091120180911501981728F481E057
:1005400090E09A83898312C09091120180911501E5
:10055000891718F41A82198209C082E090E09A8300
:10056000898304C082E090E09A83898389819A819B
:1005700081309105C9F08230910551F1892B69F5DF
:1005800080911401803E31F180911401880F809395
:10059000140180911501880F809315018091160137
:1005A000880F8093160116C0809114018730A1F046
:1005B0008091140186958093140180911501869590
:1005C000809315018091160186958093160104C0D1
:1005D000000003C0000001C0000089819A810F90D3
:1005E0000F90DF91CF910895CF93DF9300D0CDB7D7
:1005F000DEB79A83898389819A81009719F00197E0
:1006000031F008C081E090E09A83898306C01A82A5
:10061000198203C01A821982000089819A81009789
:1006200019F0019769F018C088E290E02091130159
:10063000FC0120838BE290E02FEEFC0120830CC0B4
:1006400088E290E020911401FC0120838BE290E08D
:100650002EEFFC012083000089819A810F900F907A
:10066000DF91CF910895CF93DF93CDB7DEB72C976D
:100670000FB6F894DEBF0FBECDBF6D837E838F8330
:10068000988729873A874B875C878D819E81AF81C8
:10069000B88529853A854B855C85BC01CD010E94D2
:1006A0001C05DC01CB0189839A83AB83BC838981E0
:1006B0009A81AB81BC81892B8A2B8B2B29F489856C
:1006C0009A85AB85BC8511C089859A85AB85BC852B
:1006D0008D839E83AF83B88789819A81AB81BC81EA
:1006E00089879A87AB87BC87D0CFBC01CD012C9678
:1006F0000FB6F894DEBF0FBECDBFDF91CF91089546
:100700000F931F93CF93DF93CDB7DEB72F970FB61D
:10071000F894DEBF0FBECDBF81E290E0FC011082F5
:1007200082E290E02FEFFC01208387E290E02FEF40
:10073000FC01208388E290E0FC0110828AE290E0D4
:100740002FEFFC0120838BE290E0FC01108286E019
:10075000E9E1F1E0DE011A9601900D928A95E1F748
:1007600083E090E098878F838FEF898789858093D6
:10077000290188EC90E0A0E0B0E080932A019093FA
:100780002B01A0932C01B0932D0180912A0190910F
:100790002B01A0912C01B0912D0180932E019093FB
:1007A0002F01A0933001B09331018BEB91E0909336
:1007B0003301809332018985809334018AE090E08F
:1007C000A0E0B0E08093350190933601A09337010B
:1007D000B09338018091350190913601A091370195
:1007E000B09138018093390190933A01A0933B0175
:1007F000B0933C0184EF92E090933E0180933D01E1
:10080000898580933F0188EC90E0A0E0B0E0809380
:10081000400190934101A0934201B0934301809124
:10082000400190914101A0914201B0914301809318
:10083000440190934501A0934601B093470185E59B
:1008400092E090934901809348018A859B85FC0141
:1008500081819281A381B48189839A83AB83BC8394
:100860001E821D8225C08D819E81880F991F9E0149
:100870002F5F3F4F820F931F0996FC01808191816A
:10088000FC01218132814381548189819A81AB812C
:10089000BC81BC01CD010E943303DC01CB01898303
:1008A0009A83AB83BC838D819E8101969E838D83C9
:1008B0002D813E818F81988528173907A0F2898183
:1008C0009A81AB81BC81BC01CD010E9490000E9445
:1008D000BE001E821D82A0C08D819E81880F991F3F
:1008E0009E012F5F3F4F820F931F0996FC0180816D
:1008F0009181FC0125813681478150858D819E81C2
:10090000880F991FBE016F5F7F4F860F971F099653
:10091000FC0180819181FC0181819281A381B4815C
:10092000281739074A075B0709F045C08D819E816A
:10093000880F991F9E012F5F3F4F820F931F0996CB
:10094000FC01008111818D819E81880F991F9E017C
:100950002F5F3F4F820F931F0996FC018081918189
:10096000FC01218532858D819E81880F991FAE0102
:100970004F5F5F4F840F951F0996FC018081918125
:10098000FC018081082E000C990BF9010995F801F2
:1009900080838D819E81880F991F9E012F5F3F4F1D
:1009A000820F931F0996FC0180819181FC011582C1
:1009B0001682178210868D819E81880F991F9E0155
:1009C0002F5F3F4F820F931F0996FC016081718159
:1009D0008D819E81880F991F9E012F5F3F4F820F4F
:1009E000931F0996FC0180819181FC01258136814C
:1009F0004781508589819A81AB81BC81820F931F89
:100A0000A41FB51FFB0185839683A783B0878D81C3
:100A10009E8101969E838D832D813E818F81988555
:100A20002817390708F458CF000080912001882347
:100A3000E1F3109220014DCFA1E21A2EAA1BBB1B9D
:100A4000FD010DC0AA1FBB1FEE1FFF1FA217B3079A
:100A5000E407F50720F0A21BB30BE40BF50B661FB0
:100A6000771F881F991F1A9469F760957095809574
:100A700090959B01AC01BD01CF010895F894FFCF83
:100A800000000002000000006700000000000100FC
:100A90000000101C380820FE80290134013F0100AD
:00000001FF
