:100000000C9446000C9465000C9465000C946500FB
:100010000C9465000C9465000C9465000C946500CC
:100020000C9465000C9465000C9465000C946500BC
:100030000C9465000C940C010C9465000C94650004
:100040000C9465000C9465000C9465000C9465009C
:100050000C9465000C9465000C9465000C9465008C
:100060000C9465000C9465000C9465000C9465007C
:100070000C9465000C9465000C9465000C9465006C
:100080000C9465000C9465000C94650011241FBE4F
:10009000CFEFD0E4DEBFCDBF11E0A0E0B1E0E8ECEF
:1000A000F8E000E00BBF02C007900D92A631B10747
:1000B000D9F721E0A6E1B1E001C01D92A133B2075A
:1000C000E1F70E94CA020C9462040C940000CF93E2
:1000D000DF9300D01F92CDB7DEB789837B836A831D
:1000E00089818A3031F48A819B81BC018DE00E9434
:1000F000670080EC90E0FC018081882F90E08072A6
:100100009927892BB1F386EC90E02981FC012083AB
:1001100080E090E00F900F900F90DF91CF910895C5
:10012000CF93DF9300D000D0CDB7DEB769837A8359
:100130008B839C8389819A81AB81BC8180930E01E2
:1001400090930F01A0931001B093110180910E01C3
:1001500090910F01A0911001B091110180931701AE
:1001600090931801A0931901B0931A0100000F9009
:100170000F900F900F90DF91CF910895CF93DF9361
:10018000CDB7DEB781E890E02BE0FC01208388E862
:1001900090E02DE730E0FC01318320838FE690E092
:1001A00022E0FC01208384E890E0FC0111821082AF
:1001B00080910E0190910F01A0911001B091110159
:1001C0008093170190931801A0931901B0931A011D
:1001D0008FE590E02FE530E0F90120812068FC01F7
:1001E00020830000DF91CF910895CF93DF93CDB7A7
:1001F000DEB781E890E0FC0110820000DF91CF9132
:100200000895CF93DF93CDB7DEB781E080931601D9
:100210000000DF91CF9108951F920F9200905F0030
:100220000F92112400905B000F922F933F934F93F6
:100230005F936F937F938F939F93AF93BF93EF934E
:10024000FF93CF93DF93CDB7DEB7809117019091E5
:100250001801A0911901B0911A010197A109B109E2
:100260008093170190931801A0931901B0931A017C
:100270008091170190911801A0911901B0911A0174
:10028000892B8A2B8B2B91F40E94010180910E0106
:1002900090910F01A0911001B0911101809317016D
:1002A00090931801A0931901B0931A010000DF91F7
:1002B000CF91FF91EF91BF91AF919F918F917F91DE
:1002C0006F915F914F913F912F910F9000925B0042
:1002D0000F9000925F000F901F901895CF93DF93BF
:1002E00000D0CDB7DEB79A83898389819A81892B23
:1002F00019F01A82198201C0000089819A81892B24
:1003000009F026C0809113018F3E59F480911401A9
:10031000813039F480E8809314018EEF80931301CB
:1003200016C080911401813069F480E88093140133
:1003300080911301882F90E0880F991F816080932E
:10034000130105C08091140186958093140100006B
:1003500088E290E020911401FC0120838BE290E080
:1003600020911301FC01208389819A810F900F90C5
:10037000DF91CF910895CF93DF9300D01F92CDB737
:10038000DEB79B838A8380E290E0FC0180818095C8
:10039000837089838A819B8181309105F9F0823055
:1003A0009105A9F1892B09F04BC08981882319F0A7
:1003B0008981833029F482E090E09B838A8345C061
:1003C0008981813029F481E090E09B838A833DC05C
:1003D00089818230D1F51B821A8237C089818823B6
:1003E00019F08981833029F482E090E09B838A832D
:1003F0002EC08981813029F481E090E09B838A833B
:1004000026C08981823019F51B821A8220C0898119
:10041000882319F08981833029F482E090E09B835E
:100420008A8317C08981813029F481E090E09B8321
:100430008A830FC08981823061F41B821A8209C0CD
:1004400082E090E09B838A8305C0000003C0000027
:1004500001C000008A819B818130910579F0823052
:100460009105B1F0892BC9F480911201803E91F081
:1004700080911201880F809312010CC080911201AB
:10048000873051F08091120186958093120104C04B
:10049000000003C0000001C000008A819B810F9012
:1004A0000F900F90DF91CF910895CF93DF9300D0FD
:1004B000CDB7DEB79A83898389819A81892B19F414
:1004C0001A82198203C01A821982000089819A81D6
:1004D000892B61F488E290E020911201FC012083D5
:1004E0008BE290E02FEEFC012083000089819A814D
:1004F0000F900F90DF91CF910895CF93DF93CDB7F9
:10050000DEB72C970FB6F894DEBF0FBECDBF6D835C
:100510007E838F83988729873A874B875C878D8175
:100520009E81AF81B88529853A854B855C85BC0164
:10053000CD010E944004DC01CB0189839A83AB8307
:10054000BC8389819A81AB81BC81892B8A2B8B2BBF
:1005500029F489859A85AB85BC8511C089859A85E2
:10056000AB85BC858D839E83AF83B88789819A8153
:10057000AB81BC8189879A87AB87BC87D0CFBC0110
:10058000CD012C960FB6F894DEBF0FBECDBFDF9124
:10059000CF9108950F931F93CF93DF93CDB7DEB71D
:1005A0002D970FB6F894DEBF0FBECDBF81E290E06D
:1005B000FC01108282E290E02FEFFC01208387E2B1
:1005C00090E02FEFFC01208388E290E0FC01108294
:1005D0008AE290E02FEFFC0120838BE290E0FC01A7
:1005E00010828BE191E09B878A8786E291E09D876C
:1005F0008C8782E090E098878F838FEF8987898549
:1006000080931B0188EC90E0A0E0B0E080931C0197
:1006100090931D01A0931E01B0931F0180911C01B6
:1006200090911D01A0911E01B0911F0180932001A6
:1006300090932101A0932201B09323018BEB91E0D1
:10064000909325018093240189858093260182E37C
:1006500090E0A0E0B0E08093270190932801A09360
:100660002901B0932A018091270190912801A0913E
:100670002901B0912A0180932B0190932C01A09322
:100680002D01B0932E0185E592E090933001809387
:100690002F018A859B85FC0181819281A381B48190
:1006A00089839A83AB83BC831E821D8225C08D8182
:1006B0009E81880F991F9E012F5F3F4F820F931FCE
:1006C0000996FC0180819181FC0121813281438165
:1006D000548189819A81AB81BC81BC01CD010E948A
:1006E0007D02DC01CB0189839A83AB83BC838D813E
:1006F0009E8101969E838D832D813E818F81988579
:1007000028173907A0F289819A81AB81BC81BC018D
:10071000CD010E9490000E94BE001E821D82A0C0DA
:100720008D819E81880F991F9E012F5F3F4F820F01
:10073000931F0996FC0180819181FC0125813681FE
:10074000478150858D819E81880F991FBE016F5F03
:100750007F4F860F971F0996FC0180819181FC01D4
:1007600081819281A381B481281739074A075B07E9
:1007700009F045C08D819E81880F991F9E012F5FD2
:100780003F4F820F931F0996FC01008111818D81DB
:100790009E81880F991F9E012F5F3F4F820F931FED
:1007A0000996FC0180819181FC01218532858D8132
:1007B0009E81880F991FAE014F5F5F4F840F951F79
:1007C0000996FC0180819181FC018081082E000C3A
:1007D000990BF9010995F80180838D819E81880F1D
:1007E000991F9E012F5F3F4F820F931F0996FC01B7
:1007F00080819181FC0115821682178210868D817D
:100800009E81880F991F9E012F5F3F4F820F931F7C
:100810000996FC01608171818D819E81880F991FED
:100820009E012F5F3F4F820F931F0996FC0180812D
:100830009181FC01258136814781508589819A818A
:10084000AB81BC81820F931FA41FB51FFB01858361
:100850009683A783B0878D819E8101969E838D8329
:100860002D813E818F8198852817390708F458CF4C
:100870000000809116018823E1F3109216014DCFFC
:10088000A1E21A2EAA1BBB1BFD010DC0AA1FBB1F94
:10089000EE1FFF1FA217B307E407F50720F0A21B06
:1008A000B30BE40BF50B661F771F881F991F1A9473
:1008B00069F760957095809590959B01AC01BD019D
:0808C000CF010895F894FFCF69
:1008C80000000002000000006700000000000100B6
:0608D80000001CFE800080
:00000001FF
