:100000000C9446000C9465000C9465000C946500FB
:100010000C9465000C9465000C9465000C946500CC
:100020000C9465000C9465000C9465000C946500BC
:100030000C9465000C940C010C9465000C94650004
:100040000C9465000C9465000C9465000C9465009C
:100050000C9465000C9465000C9465000C9465008C
:100060000C9465000C9465000C9465000C9465007C
:100070000C9465000C9465000C9465000C9465006C
:100080000C9465000C9465000C94650011241FBE4F
:10009000CFEFD0E4DEBFCDBF11E0A0E0B1E0E4E1FE
:1000A000F1E100E00BBF02C007900D92A632B1074C
:1000B000D9F721E0A6E2B1E001C01D92A735B20751
:1000C000E1F70E94A1060C9488080C940000CF93DD
:1000D000DF9300D01F92CDB7DEB789837B836A831D
:1000E00089818A3031F48A819B81BC018DE00E9434
:1000F000670080EC90E0FC018081882F90E08072A6
:100100009927892BB1F386EC90E02981FC012083AB
:1001100080E090E00F900F900F90DF91CF910895C5
:10012000CF93DF9300D000D0CDB7DEB769837A8359
:100130008B839C8389819A81AB81BC8180930E01E2
:1001400090930F01A0931001B093110180910E01C3
:1001500090910F01A0911001B0911101809327019E
:1001600090932801A0932901B0932A0100000F90D9
:100170000F900F900F90DF91CF910895CF93DF9361
:10018000CDB7DEB781E890E02BE0FC01208388E862
:1001900090E02DE730E0FC01318320838FE690E092
:1001A00022E0FC01208384E890E0FC0111821082AF
:1001B00080910E0190910F01A0911001B091110159
:1001C0008093270190932801A0932901B0932A01DD
:1001D0008FE590E02FE530E0F90120812068FC01F7
:1001E00020830000DF91CF910895CF93DF93CDB7A7
:1001F000DEB781E890E0FC0110820000DF91CF9132
:100200000895CF93DF93CDB7DEB781E080932601C9
:100210000000DF91CF9108951F920F9200905F0030
:100220000F92112400905B000F922F933F934F93F6
:100230005F936F937F938F939F93AF93BF93EF934E
:10024000FF93CF93DF93CDB7DEB7809127019091D5
:100250002801A0912901B0912A010197A109B109B2
:100260008093270190932801A0932901B0932A013C
:100270008091270190912801A0912901B0912A0134
:10028000892B8A2B8B2B91F40E94010180910E0106
:1002900090910F01A0911001B0911101809327015D
:1002A00090932801A0932901B0932A010000DF91C7
:1002B000CF91FF91EF91BF91AF919F918F917F91DE
:1002C0006F915F914F913F912F910F9000925B0042
:1002D0000F9000925F000F901F901895CF93DF93BF
:1002E00000D01F92CDB7DEB79B838A8380E290E077
:1002F000FC0180818095887089838A819B8182300E
:10030000910509F4D6C08330910534F4009781F04B
:10031000019709F4AFC02BC28430910509F4E5C000
:10032000843091050CF482C1059709F4BFC01FC247
:100330008981883029F485E090E09B838A831AC202
:1003400080911301813009F04CC080911501882FF4
:1003500090E0880F991F409779F59091180180914E
:100360001601982380911601981729F482E090E0F5
:100370009B838A83FFC19091190180911601982374
:1003800080911601981729F482E090E09B838A837C
:10039000F1C1909117018091160198238091160167
:1003A000981729F481E090E09B838A83E3C185E07C
:1003B00090E09B838A83DEC180911401813029F40F
:1003C00083E090E09B838A83D5C1809114018038BB
:1003D00029F484E090E09B838A83CCC11B821A823B
:1003E000C9C1809115018695813079F590911B01E5
:1003F00080911601982380911601981729F482E0C4
:1004000090E09B838A83B6C190911C018091160174
:10041000982380911601981729F482E090E09B833D
:100420008A83A8C190911A01809116019823809126
:100430001601981729F481E090E09B838A839AC182
:1004400085E090E09B838A8395C18091140181307F
:1004500029F483E090E09B838A838CC1809114010E
:10046000803829F484E090E09B838A8383C11B82D7
:100470001A8280C18981883021F485E090E09B83D5
:100480008A8380911401813029F483E090E09B837A
:100490008A8370C180911401803829F484E090E04F
:1004A0009B838A8367C11B821A8264C11B821A8262
:1004B00061C18981883021F485E090E09B838A8343
:1004C00080911401813029F483E090E09B838A833A
:1004D00051C180911401803829F484E090E09B831D
:1004E0008A8348C11B821A8245C18981883021F4E0
:1004F00085E090E09B838A8380911301813009F02D
:100500004CC080911501882F90E0880F991F40976B
:1005100079F5909118018091160198238091160128
:10052000981729F482E090E09B838A8323C19091FD
:10053000190180911601982380911601981729F4CA
:1005400082E090E09B838A8315C19091170180918E
:100550001601982380911601981729F481E090E004
:100560009B838A8307C185E090E09B838A8302C1D5
:1005700080911401813029F483E090E09B838A8389
:10058000F9C080911401803829F484E090E09B83C5
:100590008A83F0C01B821A82EDC080911501869576
:1005A000813079F590911B018091160198238091FB
:1005B0001601981729F482E090E09B838A83DAC0C1
:1005C00090911C0180911601982380911601981733
:1005D00029F482E090E09B838A83CCC090911A0139
:1005E00080911601982380911601981729F481E0D3
:1005F00090E09B838A83BEC085E090E09B838A83E2
:10060000B9C080911401813029F483E090E09B838C
:100610008A83B0C080911401803829F484E090E08E
:100620009B838A83A7C01B821A82A4C089818830D9
:1006300021F485E090E09B838A83809113018130CF
:1006400009F04CC080911501882F90E0880F991F08
:10065000409779F590911801809116019823809127
:100660001601981729F482E090E09B838A8382C068
:100670009091190180911601982380911601981785
:1006800029F482E090E09B838A8374C090911701E3
:1006900080911601982380911601981729F481E022
:1006A00090E09B838A8366C085E090E09B838A8389
:1006B00061C080911401813029F483E090E09B8334
:1006C0008A8358C080911401803829F484E090E036
:1006D0009B838A834FC01B821A824CC08091150174
:1006E0008695813079F590911B01809116019823B0
:1006F00080911601981729F482E090E09B838A8309
:1007000039C090911C0180911601982380911601A7
:10071000981729F482E090E09B838A832BC0909104
:100720001A0180911601982380911601981729F4D7
:1007300081E090E09B838A831DC085E090E09B83ED
:100740008A8318C080911401813029F483E090E0FD
:100750009B838A830FC080911401803829F484E040
:1007600090E09B838A8306C01B821A8203C01B828F
:100770001A8200008A819B818230910509F45FC052
:10078000833091052CF4009779F0019781F1DFC057
:100790008430910509F49DC0843091050CF47DC02E
:1007A000059709F4B2C0D3C080911301882331F4B6
:1007B0008091150186958093150105C080911501E2
:1007C000880F80931501809112018F3F31F4809141
:1007D0001601880F8093160105C080911601869539
:1007E000809316018091160180931401B0C080910E
:1007F0001301882349F481E080931301809115014E
:10080000880F8093150107C0109213018091150184
:10081000869580931501809112018F3F31F480916C
:100820001601880F8093160105C0809116018695E8
:1008300080931601809116018093140188C08091E5
:100840001301882349F481E08093130180911501FD
:10085000880F8093150107C0109213018091150134
:1008600086958093150180911201813049F48FEFB4
:100870008093120180911601880F8093160108C0A1
:1008800081E0809312018091160186958093160174
:1008900080911601809314015AC08FEF809312014A
:1008A00080911601880F8093160180911601809324
:1008B000140180911301882331F4809115018695EC
:1008C0008093150144C080911501880F8093150114
:1008D0003EC081E08093120180911601869580933D
:1008E00016018091160180931401809113018823D1
:1008F00031F48091150186958093150128C080916F
:100900001501880F8093150122C080E180931401A6
:1009100084E08093150180E18093160181E080934B
:10092000120181E0809313018CE18093170184E030
:100930008093180180E18093190188E380931A0164
:1009400088E080931B0180E280931C0100008A8173
:100950009B810F900F900F90DF91CF910895CF93CF
:10096000DF9300D01F92CDB7DEB79B838A8380E2EE
:1009700090E0FC0180818095867089838A819B81CB
:1009800081309105F9F082309105A9F1892B09F0A8
:100990004BC08981882319F08981863029F482E04F
:1009A00090E09B838A8345C08981823029F481E06D
:1009B00090E09B838A833DC089818430D1F51B827E
:1009C0001A8237C08981882319F08981863029F4F9
:1009D00082E090E09B838A832EC08981823029F453
:1009E00081E090E09B838A8326C08981843019F559
:1009F0001B821A8220C08981882319F08981863060
:100A000029F482E090E09B838A8317C08981823039
:100A100029F481E090E09B838A830FC08981843030
:100A200061F41B821A8209C082E090E09B838A8372
:100A300005C0000003C0000001C000008A819B8146
:100A400081309105C9F08230910551F1892B69F50A
:100A500080911701803E31F180911701880F8093BA
:100A6000170180911801880F809318018091190156
:100A7000880F8093190116C0809117018730A1F06B
:100A800080911701869580931701809118018695B2
:100A9000809318018091190186958093190104C0F3
:100AA000000003C0000001C000008A819B810F90FC
:100AB0000F900F90DF91CF910895CF93DF9300D0E7
:100AC000CDB7DEB79A83898389819A818130910578
:100AD000F9F082309105A9F1892B09F04BC0909172
:100AE000140180911B01981728F481E090E09A830B
:100AF000898344C09091140180911B01891718F4D7
:100B00001A8219823BC082E090E09A83898336C0C2
:100B10009091140180911B01981728F481E090E0D6
:100B20009A8389832BC09091140180911B018917AE
:100B300018F41A82198222C082E090E09A83898395
:100B40001DC09091140180911B01981728F481E039
:100B500090E09A83898312C09091140180911B01C7
:100B6000891718F41A82198209C082E090E09A83EA
:100B7000898304C082E090E09A83898389819A8185
:100B800081309105C9F08230910551F1892B69F5C9
:100B900080911A01803E31F180911A01880F809373
:100BA0001A0180911B01880F80931B0180911C0109
:100BB000880F80931C0116C080911A018730A1F024
:100BC00080911A01869580931A0180911B01869568
:100BD00080931B0180911C01869580931C0104C0A9
:100BE000000003C0000001C0000089819A810F90BD
:100BF0000F90DF91CF910895CF93DF9300D0CDB7C1
:100C0000DEB79A83898389819A818130910551F079
:100C10008230910561F0892B69F481E090E09A833C
:100C200089830BC082E090E09A83898306C01A8290
:100C3000198203C01A821982000089819A81813049
:100C4000910589F082309105D1F0892B31F588E248
:100C500090E020911701FC0120838BE290E02FEEC1
:100C6000FC0120831AC088E290E020911A01FC0167
:100C700020838BE290E02EEFFC0120830EC088E2FF
:100C800090E020911401FC0120838BE290E0209100
:100C900015012095FC012083000089819A810F9025
:100CA0000F90DF91CF910895CF93DF93CDB7DEB74B
:100CB0002C970FB6F894DEBF0FBECDBF6D837E8339
:100CC0008F83988729873A874B875C878D819E81A0
:100CD000AF81B88529853A854B855C85BC01CD01FE
:100CE0000E946608DC01CB0189839A83AB83BC83B5
:100CF00089819A81AB81BC81892B8A2B8B2B29F42A
:100D000089859A85AB85BC8511C089859A85AB8517
:100D1000BC858D839E83AF83B88789819A81AB819F
:100D2000BC8189879A87AB87BC87D0CFBC01CD01B6
:100D30002C960FB6F894DEBF0FBECDBFDF91CF91DA
:100D400008950F931F93CF93DF93CDB7DEB76397CB
:100D50000FB6F894DEBF0FBECDBF81E290E0FC017C
:100D6000108282E290E02FEFFC01208387E290E086
:100D70002FEFFC01208388E290E0FC0110828AE2E0
:100D800090E02FEFFC0120838BE290E0FC011082C9
:100D900088E0EDE1F1E0DE011C9601900D928A956C
:100DA000E1F784E090E098878F838FEF89878985CA
:100DB00080932B0188EC90E0A0E0B0E080932C01C0
:100DC00090932D01A0932E01B0932F0180912C01BF
:100DD00090912D01A0912E01B0912F0180933001AF
:100DE00090933101A0933201B09333018FEA94E0E4
:100DF000909335018093340189858093360185E095
:100E000090E0A0E0B0E08093370190933801A09388
:100E10003901B0933A018091370190913801A09146
:100E20003901B0913A0180933B0190933C01A0932A
:100E30003D01B0933E018CEF95E09093400180938B
:100E40003F0189858093410188EC90E0A0E0B0E00B
:100E50008093420190934301A0934401B0934501D4
:100E60008091420190914301A0914401B0914501CC
:100E70008093460190934701A0934801B0934901A4
:100E80008DE595E090934B0180934A01898580938D
:100E90004C0184EF91E0A0E0B0E080934D0190938D
:100EA0004E01A0934F01B093500180914D0190915C
:100EB0004E01A0914F01B091500180935101909348
:100EC0005201A0935301B09354018EE691E09093A8
:100ED0005601809355018C859D85FC01818192810D
:100EE000A381B48189839A83AB83BC831E821D82D4
:100EF00025C08D819E81880F991F9E012F5F3F4FD6
:100F0000820F931F0B96FC0180819181FC0121814E
:100F100032814381548189819A81AB81BC81BC013A
:100F2000CD010E945406DC01CB0189839A83AB83F7
:100F3000BC838D819E8101969E838D832D813E8110
:100F40008F81988528173907A0F289819A81AB8112
:100F5000BC81BC01CD010E9490000E94BE0081E3D3
:100F600090E09B878A871E821D82A0C08D819E8112
:100F7000880F991F9E012F5F3F4F820F931F0B9683
:100F8000FC0180819181FC0125813681478150855A
:100F90008D819E81880F991FBE016F5F7F4F860FE5
:100FA000971F0B96FC0180819181FC0181819281C8
:100FB000A381B481281739074A075B0709F045C0A8
:100FC0008D819E81880F991F9E012F5F3F4F820F59
:100FD000931F0B96FC01008111818D819E81880FEA
:100FE000991F9E012F5F3F4F820F931F0B96FC01AD
:100FF00080819181FC01218532858D819E81880FC0
:10100000991FAE014F5F5F4F840F951F0B96FC0138
:1010100080819181FC018081082E000C990BF901DF
:101020000995F80180838D819E81880F991F9E010B
:101030002F5F3F4F820F931F0B96FC0180819181A0
:10104000FC0115821682178210868D819E81880F81
:10105000991F9E012F5F3F4F820F931F0B96FC013C
:10106000608171818D819E81880F991F9E012F5F04
:101070003F4F820F931F0B96FC0180819181FC01F1
:10108000258136814781508589819A81AB81BC81D8
:10109000820F931FA41FB51FFB0185839683A7832F
:1010A000B0878D819E8101969E838D832D813E81A7
:1010B0008F8198852817390708F458CF0000809150
:1010C00026018823E1F3109226014DCFA1E21A2ECA
:1010D000AA1BBB1BFD010DC0AA1FBB1FEE1FFF1FDC
:1010E000A217B307E407F50720F0A21BB30BE40B2C
:1010F000F50B661F771F881F991F1A9469F7609573
:101100007095809590959B01AC01BD01CF0108952C
:04111000F894FFCF81
:101114000000000200000000670000000000010061
:10112400000001011004101C04103808202B0136A3
:061134000141014C010025
:00000001FF
